:100000000C943D000C945A000C945A000C945A0025
:100010000C945A000C945A000C9484230C945A00AB
:100020000C945A000C945A000C945A000C94AD1A7B
:100030000C945A000C945A000C94F3040C945A003B
:100040000C945A000C945A000C94BA230C94E22499
:100050000C945A000C945A000C94C30B0C945A0044
:100060000C945A000C945A00041A231A311A3B1AA1
:10007000551A5F1A6A1A831A8D1A11241FBECFEF00
:10008000D8E0DEBFCDBF13E0A0E0B1E0E6EFFCE4D6
:1000900002C005900D92AA3CB107D9F725E0AAEC61
:1000A000B3E001C01D92A93CB207E1F70E945C00D9
:1000B0000C9465260C940000EF92FF920F931F930F
:1000C000CF93DF9300D000D0CDB7DEB70E94FA1AED
:1000D0000E94560C0E946C1D0E94AC040E94FA0CF7
:1000E0000E94D10F0E94EE180E94BE190E94682043
:1000F0000E94F51940E351E069E371E082E491E088
:100100000E94BD1219821A821B821C82CE010196A6
:100110009C01CE010196AC01CE010196BC018EE39B
:1001200095E00E94191E000000EA1FE020E030E088
:1001300040E65AEE60E070E08EE395E00E940D0B21
:10014000892B91F387E491E00E94001B0E94C20575
:100150000E94F61B0E94C5057C010E94C8058C0107
:100160000E94C2059701A801BC018EE395E00E94A0
:10017000191E83E00E94270E85E00E94F20E84E0A3
:100180000E94270E0E94932380E00E94270E80E0A9
:1001900090E00E94B6030E9421130E94D01968E8E3
:1001A00073E181E090E00E947F050E949F230E94FE
:1001B000750C81E090E00E946605892B09F453C01C
:1001C0000E94D61990930101809300018091000153
:1001D00090910101092E000CAA0BBB0BBC01CD01B3
:1001E0000E942E1B80E00E949313882329F082E551
:1001F00091E00E94001B18C080E00E948B138823AE
:1002000029F088E691E00E94001B0EC080E00E9469
:100210009B13882329F08CE791E00E94001B04C007
:100220008DE891E00E94001BE091C104F091C204AE
:100230002091BF043091C0044091BD045091BE0490
:100240006091BB047091BC04809100019091010108
:100250008F010E94F61968EE73E081E090E00E9441
:100260007F050E94D01980E00E949B13882341F0F3
:1002700060E97FE180E00E94DB1380E00E94E113EF
:1002800080E00E948C17882349F102C00E942B0352
:1002900080E00E948C178823C9F78091CB03882FB8
:1002A00090E08130910561F0823091051CF4892B3A
:1002B00081F010C08230910531F0039739F00AC007
:1002C0000E94730107C00E94130304C00E941F0311
:1002D00001C0000080E00E94241467CF0E94BF0D7F
:1002E0000E94C70462CFCF93DF93CDB7DEB72797C5
:1002F0000FB6F894DEBF0FBECDBF66EA71E080E0B6
:100300000E94211666EB71E080E00E9421166DEDDF
:1003100071E080E00E94211661EF71E080E00E94B0
:1003200021166BE780E00E94311664EF71E080E0F7
:100330000E94421668EF71E080E00E9421166BEF88
:1003400071E080E00E9442166AE380E00E9431166C
:1003500066E175E080E00E9442166CE280E00E9457
:10036000311661E072E080E00E9442166AE380E0AC
:100370000E94311662E275E080E00E9442166CE253
:1003800080E00E9431166EE072E080E00E9442162A
:100390006AE380E00E9431166EE275E080E00E9420
:1003A00042166CE280E00E9431166CE172E080E05F
:1003B0000E9442166AE380E00E94311680913A055D
:1003C00090913B05A0913C05B0913D05AC01BD016C
:1003D00080E00E9455166CE280E00E9431166DE2CA
:1003E00072E080E00E9442166AE380E00E943116CB
:1003F0006EE375E080E00E9480166CE280E00E946F
:10040000311669E372E080E00E9442166AE380E000
:100410000E94311664E475E080E00E9442166DE7A8
:1004200080E00E9431166CE280E00E94311666E4A2
:1004300072E080E00E9442166AE380E00E9431167A
:100440008091BB049091BC04BC0180E00E94B61670
:100450006CE280E00E9431166FE472E080E00E945E
:1004600042166AE380E00E9431168091BD049091AB
:10047000BE04BC0180E00E94B6166CE280E00E94DF
:10048000311668E572E080E00E9442166AE380E07F
:100490000E9431168091BF049091C004BC0180E09D
:1004A0000E94B6166CE280E00E94311661E672E0AE
:1004B00080E00E9442166AE380E00E94311680913B
:1004C000C1049091C204BC0180E00E94B6166CE2A7
:1004D00080E00E9431166AE672E080E00E944216D7
:1004E0006AE380E00E943116809100019091010141
:1004F000BC0180E00E94B6166CE280E00E943116DA
:1005000066E772E080E00E9442166AE380E00E94A3
:1005100031166CE772E080E00E9442166CE280E0E7
:100520000E94311663E872E080E00E94421667E89C
:1005300072E080E00E9421161A82198253C08981DC
:100540009A81092E000CAA0BBB0B9E01295F3F4F1D
:10055000AE014D5F5F4FBC01CD010E94AE0E6BE757
:1005600080E00E9431166AE872E080E00E94421644
:100570006AE380E00E9431168B819C81AD81BE814F
:10058000AC01BD0180E00E9455166CE280E00E9443
:10059000311664E972E080E00E9442166AE380E06E
:1005A0000E9431168F81882F90E0BC0180E00E946C
:1005B000B6166DE780E00E9431160E94950E882FD6
:1005C00090E09C012150310989819A81821793071B
:1005D00024F46CE280E00E94311689819A810196B0
:1005E0009A8389830E94950E282F30E089819A8111
:1005F000821793070CF4A3CF6DE580E00E943116BB
:100600006DE780E00E94311661EF71E080E00E94AA
:100610002116000027960FB6F894DEBF0FBECDBF9F
:10062000DF91CF910895CF93DF93CDB7DEB78AE9FD
:1006300092E00E94001B0000DF91CF910895CF93BC
:10064000DF93CDB7DEB78CEA92E00E94001B00007A
:10065000DF91CF910895CF93DF931F92CDB7DEB78F
:1006600019828091CA03882F90E081309105D1F0E2
:10067000823091051CF4892B49F06CC082309105C1
:1006800009F445C0039709F45AC064C080E00E9491
:100690008C17882309F463C01092CB0381E0809308
:1006A000CA035DC0198229C061EC72E080E00E943B
:1006B000DC17882331F081E08093CB0381E08983CC
:1006C00019C066EC72E080E00E94DC17882331F0EC
:1006D00082E08093CB0381E089830CC06BEC72E0F5
:1006E00080E00E94DC17882329F083E08093CB030D
:1006F00081E0898380E00E94321889818823A1F2F9
:1007000082E08093CA032CC080E00E94321880E00F
:100710000E94BA178823C1F380E00E94321880E05B
:100720000E94A7141816190624F483E08093CA03C4
:1007300017C01092CA0314C080E00E94321880E0F3
:100740000E94BA178823C1F380E00E9432181092E9
:10075000CA0306C083ED92E00E94001B01C00000A6
:1007600000000F90DF91CF91089508958F929F928E
:10077000AF92BF92EF92FF920F931F93CF93DF93AD
:1007800000D000D01F92CDB7DEB77C018091EF0280
:100790009091F002A091F102B091F20289839A83C4
:1007A000AB83BC8348EB52E2BE016F5F7F4F83E0B7
:1007B0000E94321348EB52E2BE016F5F7F4F83E02D
:1007C0000E9449170E94A9120E9453198C010E948D
:1007D000A9129801AC0160E070E083E00E94FE1570
:1007E0000E94A9120E9453198C0121E030E04CE5CF
:1007F00053E0BC0183E00E94FE150F5F1F4F8EE2A5
:1008000095E00E9453199C014EE255E0B80183E047
:100810000E94FE158EE295E00E945319080F191FE1
:1008200021E030E04CE553E0B80183E00E94FE1582
:10083000B8016F5F7F4FC70124E0969587952A9591
:10084000E1F78A30910510F0895C01C0805D8D83ED
:1008500021E030E0AE014B5F5F4F83E00E94FE1568
:10086000B8016E5F7F4F8E2D8F7097012F703327E9
:100870002A30310510F0895C01C0805D8D8321E054
:1008800030E0AE014B5F5F4F83E00E94FE1583E0D6
:100890000E946E170E94A9054B015C0125EF820E94
:1008A00021E0921EA11CB11C0E94A90568157905C2
:1008B0008A059B05C9F783E00E94DF1384E593E076
:1008C0000E94001BB70180E090E00E942E1B85E78C
:1008D00093E00E94001B0F900F900F900F900F90CD
:1008E000DF91CF911F910F91FF90EF90BF90AF904C
:1008F0009F908F90089581E08093CC03089580911C
:10090000B704813461F48091B804833541F481E007
:1009100090E02091B904253521F080E002C080E00C
:1009200090E0E7EBF4E020E03191230F34E0EA3C83
:10093000F307D1F7222311F080E090E0089562E1FF
:1009400070E082E091E00E94331C42E162E071E0DD
:1009500080E490E00C94090C0E94520C892BE1F782
:1009600042E167EB74E080E490E00E943D0C0E945D
:100970007F04892B49F40E949F0442E167EB74E0F5
:1009800080E490E00E943D0C1092CC0308950E94F8
:10099000520C892B99F48091CC03882379F062E181
:1009A00070E087EB94E00E94331C42E167EB74E057
:1009B00080E490E00E94090C1092CC03089580918D
:1009C000CC03882379F062E170E087EB94E00E9429
:1009D000331C42E167EB74E080E490E00E94260C57
:1009E0001092CC0308951F920F920FB60F9211240C
:1009F0002F933F938F939F93AF93BF932091D703F0
:100A00003091D8038091CF039091D00328173907F4
:100A100049F08091D7039091D80301969093D80321
:100A20008093D7032091D9033091DA038091D103C9
:100A30009091D2032817390749F08091D9039091FA
:100A4000DA0301969093DA038093D9038091D3035C
:100A50009091D403A091D503B091D6030196A11D26
:100A6000B11D8093D3039093D403A093D503B09387
:100A7000D603BF91AF919F918F913F912F910F908E
:100A80000FBE0F901F90189589EF87BD82E084BD3F
:100A900093E095BD789480936E001092D3031092EA
:100AA000D4031092D5031092D60308958230910595
:100AB00050F4F894880F991FFC01E952FC4F808193
:100AC00091817894089580E090E0089582309105B6
:100AD00098F4880F991FFC01E952FC4F2081318165
:100AE000FC01E153FC4F81E090E0408151814217CD
:100AF000530721F080E0089580E090E008950F937F
:100B00001F93CF93DF93EC018B018091CD039091E4
:100B1000CE03892B41F40E94440581E090E090933C
:100B2000CE038093CD03C230D10570F48FB7F89413
:100B3000CC0FDD1FFE01E153FC4F11830083C9522E
:100B4000DC4F198218828FBFDF91CF911F910F91D7
:100B500008958091CD039091CE03892B41F40E949A
:100B6000440581E090E09093CE038093CD03F89408
:100B70006091D3037091D4038091D5039091D603F3
:100B80007894089589EE93E008958DEE93E00895AA
:100B900081EF93E0089585EF93E0089589EF93E066
:100BA000089544E150E060E00E960C9428190895F1
:100BB0002F923F924F925F926F927F928F929F926D
:100BC000AF92BF92CF92DF92EF92FF920F931F935B
:100BD000CF93DF93CDB7DEB7E6970FB6F894DEBFBD
:100BE0000FBECDBF8C012A013B0119011AAA19AA17
:100BF0000E94A9054B015C0182E00E94A914892B87
:100C0000F9F40E94A905DC01CB0188199909AA0908
:100C1000BB09481659066A067B0608F4A7C00E945D
:100C2000A9056B017C0123E3C20ED11CE11CF11C60
:100C30000E94A9056C157D058E059F05C9F7DCCFBF
:100C400048E050E0BE016D5D7F4F82E00E940515D7
:100C5000FFA08BA18BA78CA18CA78DA18DA78EA1A6
:100C60008EA7E8A442E250E0BE016F5F7F4F82E0B2
:100C70000E9405158981823009F076C08F2D90E0A1
:100C8000982F88278E0D911D8334910509F06CC033
:100C90006D817E818F8198850E944426F101608359
:100CA00071838283938346E050E0B801685F7F4F91
:100CB000CE014D960E943219892B09F059C0F101DD
:100CC00080819181A281B381F8014081518162814B
:100CD000738184179507A607B70708F449C04481B4
:100CE000558166817781481759076A077B0708F4A1
:100CF0003FC044E050E0BE016F5E7F4FC8010E96DA
:100D00000E941C198EECE82EF12C41E050E0BE014F
:100D1000615D7F4F82E00E940515F1E0EF1AF10856
:100D2000A1F7C80182969CAB8BABF801B696FEABDF
:100D3000EDAB1801FAE22F0E311C08976C012E0161
:100D40009BE2490E511C3801E2E16E0E711C580104
:100D5000F6E1AF0EB11C48012EE1820E911C82E03B
:100D60000E94A914892B31F48AA924C18FEF22C1D2
:100D700080E020C141E050E0BE01605D7F4F82E035
:100D80000E94051588A9833309F4E0C0D0F48130AE
:100D9000B9F128F3833009F442C0863009F0F5C078
:100DA00041E050E0BE016F5C7F4F82E00E9405157C
:100DB00044E050E0B40182E00E940515E12CF12CE2
:100DC00051C08A3309F48DC030F4853359F086332D
:100DD00009F45BC0DAC08B3309F49EC08F3F09F47D
:100DE000BECFD3C041E050E0BE016F5C7F4F82E0D8
:100DF0000E94051541E050E0BE016E5C7F4F0BC0C4
:100E000041E050E0BE016F5C7F4F82E00E9405151B
:100E100044E050E0B30182E00E940515A0CF41E01C
:100E200050E0BE016F5C7F4F82E00E94051544E0F8
:100E300050E0B50182E00E940515E12CF12C89A952
:100E400090E00497E816F9060CF089CF41E050E0F5
:100E5000BE01615D7F4F82E00E9405158FEFE81AA9
:100E6000F80AEDCF89A990E00497E816F9060CF08E
:100E700076CF41E050E0BE01615D7F4F82E00E948D
:100E800005159FEFE91AF90AEDCF41E050E0BE01E8
:100E90006F5C7F4F82E00E940515F801828D811101
:100EA00009C0838D811106C0848D811103C0858D99
:100EB000882319F04C145D0421F444E050E0B6019D
:100EC000AACF89A99FEF980F99AB882309F447CF40
:100ED00041E050E0BE01615D7F4F82E00E94051558
:100EE000F0CF41E050E0BE016F5C7F4F82E00E9496
:100EF000051544E050E06DA97EA982E00E94051529
:100F0000F80166A177A180A591A50E94442666A359
:100F100077A380A791A723CF41E050E0BE016F5C8B
:100F20007F4F82E00E94051544E050E0B10182E06D
:100F30000E940515F80162A573A584A595A50E94D8
:100F4000442662A773A784A795A709CF41E050E084
:100F5000BE016F5C7F4F82E00E94051544E050E0C7
:100F60006BA97CA982E00E940515F80162A173A11A
:100F700084A195A10E94442662A373A384A395A390
:100F800066A777A780AB91ABEACE41E050E0BE0107
:100F90006F5C7F4F82E00E94051589A99FEF980F33
:100FA00099AB882309F4DBCE41E050E0BE01615DDE
:100FB0007F4FF0CFE6960FB6F894DEBF0FBECDBFE1
:100FC000DF91CF911F910F91FF90EF90DF90CF9025
:100FD000BF90AF909F908F907F906F905F904F9059
:100FE0003F902F9008950E96089542960895469644
:100FF00008954A9608954E96089580E3FB018083F4
:101000003296842F82958F7090E1899F4019112428
:101010004A3014F4405D01C0495C4293482F81116D
:10102000F0CF0895AF92BF92DF92EF92FF920F93AD
:101030001F93CF93DF93CDB7DEB7AA970FB6F8947F
:10104000DEBF0FBECDBF8C01D62EF42EE52E40E2C2
:1010500050E060E0CE0101960E9428198091F302D1
:101060009091F402A091F502B091F6028DA39EA397
:10107000AFA3B8A743E450E0BE016B5D7F4F82E0B1
:101080000E944917892B09F4FBC081E089838A8378
:1010900086E08B831C82F80164817581868197814B
:1010A0000E94442669A37AA38BA39CA344E050E04A
:1010B000BE016F5D7F4FCE0105960E941C19E98627
:1010C000FA8680E890E09AA789A742E050E0BE0146
:1010D000675D7F4FCE010B960E941C192CE130E01A
:1010E000AE014F5F5F4F60E070E082E00E94FE154E
:1010F00040E250E060E0CE0101960E9428195801BC
:10110000F8E0AF0EB11C46E050E0B501CE0101960B
:101110000E941C1920E130E0AE014F5F5F4F6CE18F
:1011200070E082E00E94FE1540E250E060E0CE01F7
:1011300001960E9428198CE2E82EF12C20E230E082
:10114000AE014F5F5F4FB70182E00E94FE1580E263
:10115000E80EF11CECEEEE16F10481F783E68983CC
:1011600092E89A8393E59B838C8385E38D8381E06A
:101170008E83DF829DE3988797E099878A8746E090
:1011800050E0B501CE010B960E941C198CE0898BB2
:101190008EE593E00E9453198A5F8A8B6EE573E0B7
:1011A000CE0143960E944919F8014385BE01675E4E
:1011B0007F4FC8010E94FD07F8014485BE01655EAE
:1011C0007F4FC8010E94FD07F8014585BE01635E9F
:1011D0007F4FC8010E94FD072EE130E0AE014F5F56
:1011E0005F4F6CEE70E082E00E94FE15F3E0DF12CC
:1011F00027C082E3898384E08A83F80196859B83F4
:1012000097859C8390899D8391899E8396E39F8394
:101210008887828D8987838D8A87848D8B87858D4A
:101220008C872CE030E0AE014F5F5F4F6AE071E0E9
:1012300082E00E94FE1566E171E080E090E004C06B
:101240006AE071E080E090E027E3298326E02A83CA
:1012500031E03B8333E03C832D832FE02E832AE370
:101260002F832BE328872FEF298729E030E0AE0179
:101270004F5F5F4F82E00E94FE1582E00E946E1772
:10128000AA960FB6F894DEBF0FBECDBFDF91CF9107
:101290001F910F91FF90EF90DF90BF90AF90089556
:1012A0002F923F924F925F926F927F928F929F9276
:1012B000AF92BF92CF92DF92EF92FF920F931F9364
:1012C000CF93DF9300D000D0CDB7DEB78C0120EDF7
:1012D00037E040E050E061E070E080E090E00E94A4
:1012E000621CA0E0B0E0F80184839583A683B783F5
:1012F00080839183A283B38382E00E94DF1364E43E
:1013000070E082E00E94D713882309F42EC10E9466
:10131000A9054B015C01212C312C7801F2E4EF0E80
:10132000F11C48EE442E43E0542E612C712C52E007
:10133000C52ED7018C91833009F4FEC081111FC0E6
:10134000F80184819581A681B7810196A11DB11D07
:1013500084839583A683B7830E94A90568197909B8
:101360008A099B09A30192010E94FD25A90161E060
:10137000C8010E94120881E0D7018C93C5C0843057
:10138000F1F4F80184819581A681B7810196A11DB0
:10139000B11D84839583A683B7830E94A90568192C
:1013A00079098A099B09A30192010E94FD25A901DF
:1013B00063E0C8010E941208D701CC92A5C0813019
:1013C00051F5F80142AD53AD64AD75AD9E012F5F8F
:1013D0003F4FC8010E94D805D82EF2E08F138FC06E
:1013E00089819A81AB81BC81F80184839583A6832E
:1013F000B7830E94A905681979098A099B09A30185
:1014000092010E94FD25A90163E0C8010E94120813
:10141000D701DC9279C0823009F076C0F80142AD84
:1014200053AD64AD75AD9E012F5F3F4FC8010E9463
:10143000D805D82EF5E08F135CC0E3E0D701EC931C
:10144000F80182A193A1A4A1B5A1892B8A2B8B2B92
:1014500041F484E893E0A0E0B0E082A393A3A4A3C6
:10146000B5A3F80186A197A1A0A5B1A5892B8A2BC8
:101470008B2B61F482A193A1A4A1B5A1B695A795E8
:101480009795879586A397A3A0A7B1A7F80182A5F2
:1014900093A5A4A5B5A5892B8A2B8B2BA9F482A192
:1014A00093A1A4A1B5A1AC01BD0123E076956795F8
:1014B000579547952A95D1F7841B950BA60BB70B2B
:1014C00082A793A7A4A7B5A7F80186A197A1A0A575
:1014D000B1A586A797A7A0ABB1AB82A593A5A4A5FC
:1014E000B5A582AB93ABA4ABB5AB22242394312C2E
:1014F0000BC0F6E08F1303C0D7011C9205C0BFEFED
:10150000DB1202C0F7011082F1E02F16310409F45A
:1015100010CF0E94A905DC01CB0188199909AA09FD
:10152000BB09F80126A937A940AD51AD28173907E5
:101530004A075B0708F0FDCE82E00E94DF13F80146
:1015400084819581A681B7810196A11DB11D8483F7
:101550009583A683B7830E94A905F801FE96608350
:10156000718382839383C10102C080E090E00F9079
:101570000F900F900F90DF91CF911F910F91FF90DF
:10158000EF90DF90CF90BF90AF909F908F907F9023
:101590006F905F904F903F902F900895CF92DF9281
:1015A000EF92FF920F931F93CF93DF93EC016B01A8
:1015B0001AA21BA21CA21DA21EA21FA218A619A637
:1015C0001AA61BA61CA61DA62EAB3FAB48AF59AF53
:1015D000EAAEFBAE0CAF1DAF8C01085F1F4F46E0BB
:1015E00050E060E0C8010E942819CE010E94D10598
:1015F00046E050E0B601C8010E941C19FE01EE5BF6
:10160000FF4F1082CE01DF91CF911F910F91FF907C
:10161000EF90DF90CF900C945009EF92FF920F93D0
:101620001F93780189019A01AB01BC018BED93E016
:101630000E94CE0A1F910F91FF90EF900895CF92D4
:10164000DF92EF92FF920F931F93CF93DF93EC0102
:101650000E94A9056B017C018E01025C1F4FF801FD
:1016600080819181A281B381A7019601281B390B4A
:101670004A0B5B0BCA01B901683E33E07307810571
:10168000910508F441C028EE33E040E050E00E94AC
:10169000FD25C61AD70AE80AF90AF801C082D182E4
:1016A000E282F3828EA59FA5A8A9B9A969017A0152
:1016B000CC0CDD1CEE1CFF1C8C159D05AE05BF057A
:1016C00028F41EA61FA618AA19AA08C0821B930BED
:1016D000A40BB50B8EA79FA7A8ABB9AB8AA99BA9F2
:1016E000ACA9BDA98C159D05AE05BF0528F41AAAA5
:1016F0001BAA1CAA1DAA08C0821B930BA40BB50B26
:101700008AAB9BABACABBDAB8EA59FA5A8A9B9A975
:10171000892B8A2B8B2B69F4FE01EE5BFF4F8081B6
:10172000833039F484E08083CE010E945009019611
:1017300002C080E090E04AA95BA96CA97DA9452B75
:10174000462B472B81F4FE01EE5BFF4F20812330B7
:1017500011F0211108C01082CE010E94D105CE01E6
:101760000E9450090396DF91CF911F910F91FF9036
:10177000EF90DF90CF9008958BED93E00C941F0BCA
:10178000FA9AF99A08951F920F920FB60F921124A8
:101790002F933F934F935F936F937F938F939F9379
:1017A000AF93BF93EF93FF93E0910D058091CC042D
:1017B000E81720F0FB981092C9041AC08091CA045F
:1017C0009091CB0492BD81BD81E08E0F80930D0579
:1017D000F0E0E353FB4F808180BD8091CA0490917B
:1017E000CB0401969093CB048093CA040E94C00B53
:1017F000FF91EF91BF91AF919F918F917F916F91E9
:101800005F914F913F912F910F900FBE0F901F90BE
:1018100018952091C9042111FCCF9093CB0480939B
:10182000CA0481E08093C90410920D054093CC0452
:10183000962FADECB4E0FB018E2F891B841718F4B2
:1018400081918D93F9CF7894FB9A0895FB01861BC3
:10185000970B50E0DC01AE0FBF1F9F01261B370B1B
:101860002417350748F4F999FECFB2BDA1BD2191E7
:1018700020BDFA9AF99AEECF08952091C90421115A
:10188000FCCFFB01861B970B2E2F261B241748F439
:101890009C012E0F3F1F32BD21BDF89A20B5219328
:1018A000F3CF08958091C90490E0089560E070E05E
:1018B00080E090E00E947F05219A29980895299A56
:1018C00008952998089590931F0480931E04109200
:1018D0002204109221041092200460E070E080E065
:1018E00090E00E947F050C94610C80911E04909101
:1018F0001F04892B09F452C080E090E00E94660525
:10190000892B09F44BC080912004811134C02091AF
:10191000210430912204E0911E04F0911F04E20F93
:10192000F31F80818032E9F03CF481111DC01092D8
:1019300022041092210408958D3239F08E32A1F4E0
:101940000E945F0C6AEF70E004C00E945F0C6EEEB4
:1019500072E080E090E00E947F0581E080932004A7
:10196000089568EE73E00BC02F5F3F4F3093220461
:101970002093210408950E94610C64E670E080E0E9
:1019800090E00E947F0510922004809121049091A4
:10199000220401969093220480932104089585B136
:1019A0008695817090E008958031910504F527E0D7
:1019B000289FA001299F500D1124FA01EA5DFB4FD9
:1019C00080818132A0F480E090E020E0FA01E80F0D
:1019D000F91FEA5DFB4F3081230F01968730910597
:1019E000A9F781E090E0222321F080E0089580E0D3
:1019F00090E008956F927F928F929F92AF92BF92E4
:101A0000CF92DF92EF92FF920F931F93CF93DF93CA
:101A10000E94520C892BE1F706E914E0C0E8D0E0FF
:101A2000BE016A557C4F47E0CE010E943D0CF80193
:101A300011928F012796C03FD10591F746E2E42E1F
:101A400044E0F42E8701C0E0D0E0D12CB12C772403
:101A50007A94CE010E94D40C892B41F0F801808148
:101A6000871520F4BC2E782EDD24D3942196095FAF
:101A70001F4FC031D10569F7DD2009F46AC0B0926B
:101A8000250470922404CB2DD0E08E010F5F1F4FF0
:101A9000872C2FE0A22E37E0932E6801FFE0CF22A3
:101AA000DD24C6010E94D40C892B61F4B09223047A
:101AB0008E0101501109609780E1A82EB12C97E0AA
:101AC000692E3AC09C9CF0019D9CF00D1124EA5DAA
:101AD000FB4F4081242F30E0882D90E001968F71DC
:101AE00099272817390711F7C09225044093240439
:101AF000AA940F5F1F4FAA20C9F2842ECECFF70100
:101B0000208130E0872D90E04F968F71992728171C
:101B1000390731F5C0922304689CF001699CF00DEF
:101B20001124EA5DFB4F708001501109F7E0EF0EC0
:101B3000F11C0C171D07A1F0C801B5010E94E92591
:101B40006C014C019924C4010E94D40C892BB9F674
:101B500007C08FE080932504109224041092230480
:101B6000DF91CF911F910F91FF90EF90DF90CF9079
:101B7000BF90AF909F908F907F906F900895EF925D
:101B8000FF921F93CF93DF930E94520C892B39F55C
:101B9000E6E9F4E0C0E0D0E081918823E1F017E0CD
:101BA0001C9FC0011D9F900D11249C012A5D3B4F7D
:101BB000790167E070E0C9010E94331CC19FC00138
:101BC000112447E0B70180589F4F0E94090CCA5664
:101BD000DB4F188204C02196C031D105E9F6DF91B0
:101BE000CF911F91FF90EF900895EF92FF921F9376
:101BF000CF93DF93E6E9F4E0C0E0D0E08191882361
:101C0000E1F017E01C9FC0011D9F900D11249C0165
:101C10002A5D3B4F790167E070E0C9010E94331CE7
:101C2000C19FC001112447E0B70180589F4F0E9417
:101C3000260CCA56DB4F188204C02196C031D1054C
:101C4000E9F6DF91CF911F91FF90EF900895EF9209
:101C5000FF920F931F93CF93DF93E82EC09125043B
:101C6000D0E02196CF70DD278091230490E00E9480
:101C7000D40CF82E809124048F5F813218F4809365
:101C8000240402C01092240487E08C9F80018D9F61
:101C9000100D11240A5D1B4F80912404F8018083EC
:101CA0000E94D30FF8016183728383839483E5825A
:101CB000C093250467E070E0C8010E94331CCA5637
:101CC000DB4F81E088838091250490912304891360
:101CD00008C0FF2031F090E001968F709927809323
:101CE0002304DF91CF911F910F91FF90EF90089502
:101CF000E6E2F4E0A6E9B4E08FEF4FEF5FEFBA0160
:101D000091E08083858341835283638374839D93B1
:101D1000379624E0E639F207A1F78FE08093250497
:101D2000109223041092240408950F931F93CF93CD
:101D3000DF9300912304C02F10E0D0E0CE010E9479
:101D4000D40C892B29F02196CF701F5F0C13F5CF8F
:101D5000812FDF91CF911F910F910895AF92BF9284
:101D6000CF92DF92EF92FF920F931F93CF93DF9367
:101D70006B017C018A0159010E94950E90E0A0E060
:101D8000B0E0C816D906EA06FB06F8F480912304F1
:101D900090E0C80ED91E8FE0C822DD2487E08C9D1C
:101DA000F0018D9DF00D1124EA5DFB4F8181928140
:101DB000A381B481E80188839983AA83BB83858149
:101DC000F501808381E090E002C080E090E0DF9147
:101DD000CF911F910F91FF90EF90DF90CF90BF9028
:101DE000AF9008954F925F926F927F928F929F92E1
:101DF000AF92BF92CF92DF92EF92FF920F931F9319
:101E0000CF93DF93CDB7DEB7CA57D1090FB6F89499
:101E1000DEBF0FBECDBFF82E8091F7029091F80281
:101E2000A091F902B091FA02E9968CAF9DAFAEAFE6
:101E3000BFAFE99783E00E94A213882329F06BE7E4
:101E400070E083E00E94D71350E3E52E6E0101E4B9
:101E5000C00ED11C63E2462E512C612C712CFF2048
:101E600009F482C0F6010E2D11920A95E9F7F601E8
:101E700040825182628273820BE710E09E012B58F0
:101E80003F4F40E350E0B60183E00E94B314C09797
:101E900009F06AC00E94A9054B015C01F9EE8F0EA2
:101EA000F3E09F1EA11CB11C0E94A90568157905CD
:101EB0008A059B05C9F783E00E94A914009709F4DD
:101EC00051C08E0107581F4F9E012F583F4FAC0144
:101ED000BE016F5F7F4F83E00E942615C09709F017
:101EE00041C069A5862F90E0A0E0B0E0BA2FA92FED
:101EF000982F88272AA5820F911DA11DB11DBA2FE9
:101F0000A92F982F88272BA5820F911DA11DB11DE8
:101F1000BA2FA92F982F88274CA550E060E070E0D9
:101F20004058534169417C4B8A019B01080F191F9E
:101F30002A1F3B1FC901B8010E94A6110E94F90F78
:101F400085E693E00E94001B0E94A9120E94001BDC
:101F500082E793E00E94001B83E00E94DF1381E090
:101F600090E007C0FA947BCF83E00E94DF1380E00B
:101F700090E0C658DF4F0FB6F894DEBF0FBECDBF5E
:101F8000DF91CF911F910F91FF90EF90DF90CF9055
:101F9000BF90AF909F908F907F906F905F904F9089
:101FA00008950C94D21A0C94E21A60930E05709363
:101FB0000F0580931005909311050C94EE1A9C0167
:101FC00060E971E00E94D525892B79F0C901837001
:101FD0009927892B61F4C90164E670E00E94D52538
:101FE0009C0181E0232B21F402C081E0089580E070
:101FF00008952F923F924F925F926F927F928F92AD
:102000009F92AF92BF92CF92DF92EF92FF920F9387
:102010001F93CF93DF93CDB7DEB767970FB6F894D2
:10202000DEBF0FBECDBF2CE0EBEFF2E0AE014F5FA5
:102030005F4F1A01DA0101900D922A95E1F7DC0158
:102040002C91220F2056322F330F330F230F11966E
:102050003C9111973153230F2D8713962C91139791
:10206000022E000C330B205331096AE0629FA0015D
:10207000639F500D11241496CC900C2C000CDD089D
:10208000B0E3CB1AD108C40ED51E86010150110948
:10209000FC012681022E000C330B20533109E8EE9F
:1020A000F3E02E9FA0012F9F500D3E9F500D112455
:1020B000DC0117962C911797022E000C330B20533E
:1020C000310974E6729F7001739FF00C1124E40EC5
:1020D000F51E18964C911897042E000C550B405382
:1020E0005109649F9001659F300D1124E20EF31E8B
:1020F00019962C911997F701E20FF11D27FDFA951A
:10210000AF0158507A011B962C911B97220F205635
:10211000322F330F330F230F1C963C911C973053F3
:10212000230F298B1E962C911E97220F2056322F9B
:10213000330F330F230F1F963C911F973053230FFC
:102140002A8B51962C915197220F2056322F330F04
:10215000330F230F52968C918053280F2B8BCA017B
:102160000E94DF0F882321F05D85523008F0860140
:10217000C70160E971E00E94D525FC01DB0120E880
:1021800039E540E650EF0E945A262B013C01CF0171
:1021900064E670E00E94D525FC01DB0120E032EC12
:1021A00047E15CEB0E945A264B015C01DF01B695CA
:1021B000A795B695A79520E83FE146E857E00E942D
:1021C0005A266B017C01DF01A370BB2720E833E3B3
:1021D00041EE51E00E945A266C8B7D8B8E8B9F8B3B
:1021E000F1018E2F82199D85891720F48191080FA6
:1021F000111DF7CFA9892A2F30E0A0E1BEE00E948F
:102200004B266D877E878F87988BBA892B2F30E07E
:10221000ACE3B0E00E944B262D853E854F85588962
:10222000260F371F481F591FDA01C9013B89830F49
:10223000911DA11DB11D480E591E6A1E7B1E840CE6
:10224000951CA61CB71CC80CD91CEA1CFB1C8C894D
:102250009D89AE89BF89C80ED91EEA1EFB1ED80112
:1022600020E831E541E050E00E945A26DC01CB0134
:102270008C0D9D1DAE1DBF1D80930E0590930F0507
:10228000A0931005B093110567960FB6F894DEBFC2
:102290000FBECDBFDF91CF911F910F91FF90EF90B7
:1022A000DF90CF90BF90AF909F908F907F906F9076
:1022B0005F904F903F902F900C94EE1AEF92FF9208
:1022C0000F931F93CF93DF93CDB7DEB768970FB609
:1022D000F894DEBF0FBECDBF7B012CE0EBEFF2E048
:1022E000DE011D9601900D922A95E1F78E010F5F98
:1022F0001F4F2CE0F80111922A95E9F70E94DF0F99
:102300008A83DE011D9680E0F701408151819D9115
:10231000F80121918F0130E0290F311D4217530739
:1023200040F0421B530BF701518340838F5F8C3089
:1023300059F768960FB6F894DEBF0FBECDBFDF9198
:10234000CF911F910F91FF90EF9008954F925F9260
:102350006F927F928F929F92AF92BF92CF92DF92B5
:10236000EF92FF92CF93DF9300D0CDB7DEB72B0172
:102370003C0181E090E0A0E0B0E020E8421629E5D1
:10238000520620E6620620EF720618F480E090E024
:10239000DC0120E931E0829F5001839FB00C929FC5
:1023A000B00C112480E3A81A88EFB80AC12CD12CF4
:1023B0007601C39420E8421629E5520620E662061B
:1023C00020EF720618F4C12CD12C7601A7019601DA
:1023D00060E879E580E690EF0E94C525730162010F
:1023E000C61AD70AE80AF90A81E090E0A0E0B0E056
:1023F000C11422ECD20627E1E2062CEBF20618F417
:1024000080E090E0DC0144E6489F9001499F300D58
:102410001124A20EB31E21E030E040E050E0C114D0
:1024200082ECD80687E1E8068CEBF80618F420E089
:1024300030E0A90160E072EC87E19CEB0E94C525C9
:10244000A7019601261B370B480B590BCA01B9018E
:1024500020E83FE146E857E00E94FD25220F331FA8
:10246000220F331FA20EB31E20E833E341EE51E0EA
:102470000E94FD257501E20EF31E20E831E541E0E2
:1024800050E00E94FD254B015C013A832983BE0187
:102490006F5F7F4FC7010E945E11D82EC501B40146
:1024A00020E13EE040E050E00E94FD2529013A0194
:1024B0004B015C0168E773E084E191E00E944919F7
:1024C0006D2D70E06F5F7F4F42E084E191E00E94EC
:1024D0005C1969817A816F5F7F4F42E087E191E00B
:1024E0000E945C1944E0B7018AE191E00E945C1906
:1024F00042E0B2018FE191E00E945C19C501B40194
:102500002CE330E040E050E00E94FD2549015A01F3
:102510006B017C0142E0B40182E291E00E945C190F
:1025200042E0B60185E291E00E945C1984E191E00D
:102530000F900F90DF91CF91FF90EF90DF90CF90B1
:10254000BF90AF909F908F907F906F905F904F90D3
:1025500008950F931F930E94E21A00910E051091A7
:102560000F052091100530911105600F711F821F1A
:10257000931F1F910F910C94A611EF92FF920F934E
:102580001F93CF93DF938C01EB017A01009721F029
:10259000209711F0452B29F48CE893E00E94001B52
:1025A000FFCF61EA73E00E94181C892B29F48CE8A4
:1025B00093E00E94001B44C06BEA73E0CE010E94CE
:1025C000181C892BA1F364EB73E0C7010E94181C4F
:1025D000892B69F34CE050E0B80186E195E00E9458
:1025E0001C19109221054CE050E0BE0182E295E0FA
:1025F0000E941C1910922D054CE050E0B7018EE2AC
:1026000095E00E941C1910923905F80180818E7F97
:1026100080933E05818180933F05828180934005B0
:102620008881809341058981809342058A818093C6
:102630004305DF91CF911F910F91FF90EF90089587
:10264000FFCF0E941525882361F00E941C25843548
:10265000C1F78CEB93E00E94001B8FEF90E00C948D
:10266000B6030895EF92FF921F93CF93DF9300D0AC
:1026700000D000D0CDB7DEB7182F7A0186E0E7E0B2
:10268000F3E0DE01119601900D928A95E1F7FB01CE
:1026900081818F778C8382818D8383818E83812F4B
:1026A0000E946821BE016F5F7F4F812F0E945A21D7
:1026B000B701812F0E947621B701812F0E9431211D
:1026C00062E8812F0E94022161E0812F0E94142183
:1026D00081E026960FB6F894DEBF0FBECDBFDF9126
:1026E000CF911F91FF90EF9008950E942D2191E0CE
:1026F000823209F090E0892F08950E942D218823CD
:1027000041F08C3131F091E08A3109F490E0892F69
:10271000089580E008950E942D2191E0843109F010
:1027200090E0892F08950E942D2191E0873109F0D2
:1027300090E0892F08950E942D2191E0811190E071
:10274000892F08950C949B13CF93C82F60E10E94AA
:1027500014216FEF8C2FCF910C941F210F931F9397
:10276000CF93DF93C82FD62F8A010E94A4136D2F19
:102770008C2F0E9402210115110511F0B8010AC029
:102780006091A6047091A7046F5F7F4F7093A704B8
:102790006093A6048C2F0E94312161E08C2F0E944F
:1027A000142181E0DF91CF911F910F910895AB012A
:1027B00062E00C94AE13AB0161E00C94AE130C9488
:1027C000A413CF93C82F0E942D21833131F462E0EE
:1027D0008C2F0E94142181E001C080E0CF910895E8
:1027E0000F931F93CF93FB0190819F3F51F49181F1
:1027F0009F3F91F492819F3F79F493819F3F61F4D1
:102800001DC0911109C09181911106C09281911151
:1028100003C09381992399F04115510579F08A01FC
:10282000BF01C82F0E946821B8018C2F0E94762119
:1028300064E08C2F0E94142191E001C090E0892F68
:10284000CF911F910F91089568E00C941421CF92BD
:10285000DF92EF92FF920F931F93CF93C82F7B01CC
:102860008A014130584010F000E018E08C2F0E949F
:10287000F1216C018C2F0E942D21873111F08C31B8
:1028800021F4C016D10690F302C000E010E0A801C8
:10289000B7018C2F0E94922260E28C2F0E9414219B
:1028A0008C2F0E94242184FD0BC08C2F0E942D218F
:1028B0008111F6CF8C2F0E94A41380E090E005C018
:1028C00060E18C2F0E941F21C801CF911F910F91B1
:1028D000FF90EF90DF90CF900895CF92DF92EF922C
:1028E000FF921F93CF93DF93182F6B017A010E9401
:1028F000D922EC01009789F4812F0E942D21843187
:10290000E9F08823D9F0C1E0D0E08C3111F4C0E0C7
:10291000D0E0D195C195D10911C0E816F9060CF4A3
:10292000E7011C161D0654F420E0AE01B601812F0C
:102930000E94532360E4812F0E941421CE01DF9175
:10294000CF911F91FF90EF90DF90CF9008950C945E
:10295000D9220C94D92221E041E050E00E94532377
:1029600081E090E00895CF92DF92EF92FF920F9373
:102970001F93CF93F9019081911109C09181911119
:1029800006C09281911103C093819923A1F1011591
:10299000110589F17A014130584018F0E12C98E096
:1029A000F92EE114F10439F16B01C82FBF010E9427
:1029B0006821B8018C2F0E947621A701B6018C2FC7
:1029C0000E94922260E28C2F0E9414218C2F0E9480
:1029D000242184FD0AC08C2F0E94242183FFF6CF7E
:1029E00068E18C2F0E941F2106C060E18C2F0E949D
:1029F0001F21C70102C080E090E0CF911F910F918D
:102A0000FF90EF90DF90CF900895EF92FF921F9389
:102A1000CF93DF934115510589F0EA017B01182F0F
:102A20000E94D9228C179D0708F4EC0120E0AE012A
:102A3000B701812F0E945323CE0102C080E090E0B5
:102A4000DF91CF911F91FF90EF9008958F929F9209
:102A5000BF92CF92DF92EF92FF920F931F93CF938B
:102A6000DF93CDB7DEB728970FB6F894DEBF0FBE61
:102A7000CDBF452B09F47EC049016B01B82E0E94E1
:102A800006237C018B2D0E9407218770833059F12A
:102A9000843009F445C0823009F065C028E030E098
:102AA000AE014F5F5F4FB7018B2D0E94A61F88E0DC
:102AB000E80EF11C8981F40180838A8181838B81F6
:102AC00082838C8183838D8190E0982F88272E814B
:102AD000820F911DF801918380830F8110E0102FE8
:102AE000002788851AC026E030E0AE014F5F5F4FB7
:102AF000B7018B2D0E94A61FF6E0EF0EF11C898115
:102B0000F40180838A8181838B8182838C8183839A
:102B10000D8110E0102F00278E81080F111D16C0A7
:102B200022E030E0AE014F5F5F4FB7018B2D0E9476
:102B3000A61FF2E0EF0EF11C098110E0902F88270C
:102B40000A8110E002501109080F191F9801A6010F
:102B5000B7018B2D0E94A61FB701600F711F8B2D2F
:102B60000E94F52202C000E010E060E48B2D0E947C
:102B7000142102C000E010E0C80128960FB6F894B6
:102B8000DEBF0FBECDBFDF91CF911F910F91FF90A0
:102B9000EF90DF90CF90BF909F908F9008951F93FC
:102BA000CF93DF93182FEA014130584018F4209753
:102BB000F9F002C0C0E0D8E0AE01812F0E9492225D
:102BC00060E2812F0E941421812F0E94242184FD24
:102BD00009C0812F0E94242183FFF6CF812F0E94FC
:102BE000A41306C060E1812F0E941F21CE0102C004
:102BF00080E090E0DF91CF911F910895CF92DF9216
:102C0000EF92FF921F93CF93DF93182F7B016A01FE
:102C1000E9010E94F1218C179D0720F4812F0E9469
:102C2000F121EC019E01A601B701812F0E944722EC
:102C3000CE01DF91CF911F91FF90EF90DF90CF9069
:102C400008951F93CF93DF93182FEB01CB010E94C0
:102C50005319AC01BE01812FDF91CF911F910C94CC
:102C60002714CF93DF931F92CDB7DEB7698341E07E
:102C700050E0BE016F5F7F4F0E9427140F90DF91DD
:102C8000CF9108950F931F93CF93C82F8B0162E2CA
:102C90000E943116B8018C2F0E94211662E28C2FFF
:102CA000CF911F910F910C943116CF93C82FCB0168
:102CB000BA010E94A611FC011286BC018C2FCF9193
:102CC0000C944216CF93DF93D82FC62F70E084E088
:102CD000759567958A95E1F76A3010F4605D01C0DB
:102CE000695C8D2F0E9431166C2F6F706A3010F066
:102CF000695C01C0605D8D2FDF91CF910C9431161E
:102D0000EF92FF920F931F93CF93C82F7B0162E244
:102D10000E943116F70161918F018C2F0E9462167B
:102D2000F6E0EF0EF11C6AE38C2F0E943116F801D9
:102D300061918F018C2F0E9462160E151F0599F765
:102D400062E28C2FCF911F910F91FF90EF900C9426
:102D50003116CF93DF93C82FD62F672F0E946216AC
:102D60006D2F8C2FDF91CF910C9462162F923F9292
:102D70004F925F926F927F928F929F92AF92BF928B
:102D8000CF92DF92EF92FF920F931F93CF93DF9337
:102D9000CDB7DEB762970FB6F894DEBF0FBECDBFDA
:102DA000782E7B0177FF08C0F194E194F10881E06F
:102DB00090E0998B888B02C0198A188AFE0131969F
:102DC0001F018E01055F1F4F6F0188248394912C92
:102DD000A12CB12CAAE0B0E09401A5010E945A26D2
:102DE0006A8B472E582E692EB7010F2C000C880BCA
:102DF000990B2A89342D452D562D0E941F269401AA
:102E0000A5010E941F26F60121936F01E21AF10825
:102E100027FDF3948A88942CA52CB62C0E171F0737
:102E2000C9F688899989892B21F06DE2872D0E9446
:102E3000311680E090E0F80162918F01611105C0C8
:102E4000009719F42E163F0641F4605DF801608387
:102E5000872D0E94311681E090E02016310659F747
:102E600062960FB6F894DEBF0FBECDBFDF91CF9153
:102E70001F910F91FF90EF90DF90CF90BF90AF9098
:102E80009F908F907F906F905F904F903F902F908A
:102E900008950F931F93CF93FB019081911109C067
:102EA0009181911106C09281911103C09381992360
:102EB00079F04115510561F08A01BF01C82F0E94C8
:102EC0006821B8018C2F0E94762181E090E002C039
:102ED00080E090E0CF911F910F910895CF93C82F7C
:102EE00060E20E9414218C2F0E94242184FD0CC0DA
:102EF0008C2F0E94242183FFF6CF68E18C2F0E9443
:102F00001F2180E090E006C060E18C2F0E941F210D
:102F100081E090E0CF910895EF92FF920F931F937D
:102F2000CF93DF931F92CDB7DEB7182FE12CF12C92
:102F3000812F0E94D922E816F90688F401E0970152
:102F400041E050E0BE016F5F7F4F812F0E941E2342
:102F500089818A3031F08FEFE81AF80AE9CF80E0F2
:102F600001C081E00F90DF91CF911F910F91FF90F1
:102F7000EF9008951F93CF93DF931F92CDB7DEB7E5
:102F8000182F0E94D922892B89F021E041E050E0DE
:102F9000BE016F5F7F4F812F0E945323998181E093
:102FA0009D3029F09A3019F080E001C081E00F9047
:102FB000DF91CF911F9108958F929F92AF92BF9210
:102FC000CF92DF92EF92FF920F931F93CF93DF93F5
:102FD0001F92CDB7DEB7182F5B010E94D9227C016A
:102FE000C5010E945319E816F90668F175016701D9
:102FF000CA18DB084701F7018081882399F001E0B6
:10300000960141E050E0BE016F5F7F4F812F0E942B
:103010001E238FEFE81AF80AF4019081898198172E
:1030200031F311C0C114D10461F041E050E0BE01A0
:103030006F5F7F4F812F0E946D14F1E0CF1AD1088E
:10304000F1CF81E001C080E00F90DF91CF911F911F
:103050000F91FF90EF90DF90CF90BF90AF909F9037
:103060008F9008951F93CF93DF931F92CDB7DEB754
:10307000182F812F0E94D922892BC1F141E050E005
:10308000BE016F5F7F4F812F0E946D1489818D304B
:10309000D1F4812F0E94D922892B59F321E041E0FC
:1030A00050E0BE016F5F7F4F812F0E9453238981C3
:1030B0008A30E1F441E050E0BE016F5F7F4F812F25
:1030C0000E946D1413C08A30A1F6812F0E94D9226C
:1030D000892B79F221E041E050E0BE016F5F7F4F24
:1030E000812F0E94532389818D3021F30F90DF912E
:1030F000CF911F910895BF92CF92DF92EF92FF92EE
:103100000F931F93CF93DF931F92CDB7DEB7C82ED7
:103110008B01FB01118210820E94D922892B09F4B4
:1031200051C0D12CEE24E394F12C2AE0B22E8C2D48
:103130000E94D922892BB9F121E041E050E0BE0183
:103140006F5F7F4F8C2D0E94532389818D3231F424
:10315000D11038C0EE24EA94FE2C1CC090ED980FDC
:103160009A3090F4F80140815181B49E9001B59E4F
:10317000300D1124082E000C990BC097820F931F5D
:1031800091838083D39406C08A3069F08D3059F0E2
:10319000803249F041E050E0BE016F5F7F4F8C2DDF
:1031A0000E946D14C4CFF801208131812E9DC00191
:1031B0002F9D900D3E9D900D11249183808381E081
:1031C000D11001C080E00F90DF91CF911F910F913E
:1031D000FF90EF90DF90CF90BF9008959FB7F89445
:1031E000229B2A9A229A259A239A2D988CB580613F
:1031F0008CBD8CB580648CBD1092A8049FBF0895CF
:103200008091A80408959091A804911109C09FB7D6
:10321000F8948CBD6DBD81E08093A8049FBF2A986F
:1032200008958EBD00000DB407FEFDCF8EB5089544
:103230002A9A1092A8040895FB01480F591F841779
:10324000950729F02191DC012D93CD01F8CF089548
:10325000480F591F8417950721F0FC016193CF0196
:10326000F9CF0895FB01480F591F8417950759F0AE
:10327000DC013D91CD012191321740F02317A8F7D1
:1032800081E090E0089580E090E008958FEF9FEF57
:103290000895FC01DB018D91BD01882311F081931C
:1032A000F9CF10820895FC019F01281B390B419131
:1032B0004111FACFC90108959F92AF92BF92CF9268
:1032C000DF92EF92FF920F931F93CF93DF9300D083
:1032D00000D01F92CDB7DEB7FC016B019E012F5FBE
:1032E0003F4F8E010A5F1F4FEE24E394F12C9AE0CA
:1032F000992E9E9C50019F9CB00C1124C601B501D3
:103300000E94D525B7010E94D525D9016D939D0155
:10331000C61AD10867FDD3947501A017B10749F704
:1033200060E070E084E090E050E0D8012E918D01E3
:10333000211105C06115710511F4009741F484173E
:1033400095072CF4205D219361E070E004C08417A0
:1033500095070CF43196019740F70F900F900F905E
:103360000F900F90DF91CF911F910F91FF90EF90F1
:10337000DF90CF90BF90AF909F90089588EC80939E
:103380007C0086E880937A00089580917A00829587
:1033900086958695837091E08927817090E00895E5
:1033A000EAE7F0E08081806480830895809178006E
:1033B0002091790030E0322F2227A901330F660BCC
:1033C000770B9A01AB01282BA5E6B0E00E945A26A4
:1033D00024E630E040E050E00E941F26DA01C901F7
:1033E00081519140A109B109089508950F931F9348
:1033F000E091A904F091AA04E930F10508F09BC01E
:10340000EC5CFF4F0C943E268417950764F086EC25
:1034100093E00E94630C86E00E94270E86E090E015
:103420000E94B60325C0081719070CF48EC086EC5D
:1034300093E00E94630C88E00E94270E88E090E0F1
:103440000E94B6030BC0841795070CF708171907DD
:103450000CF47BC086EC93E00E94630C86E090E065
:1034600065C084179507FCF286EC93E00E94630C1C
:1034700083E090E05BC08617970764F088EC93E0E8
:103480000E94630C85E00E94270E85E090E00E9478
:10349000B60312C0841795070CF057C08CE593E073
:1034A0000E94630C82E090E041C08617970794F376
:1034B00088EC93E00E94630C85E090E037C08617AB
:1034C00097070CF042C086EC93E00E94630C84E006
:1034D00090E02CC02817390764F088EC93E00E9434
:1034E000630C87E00E94270E87E090E00E94B603FD
:1034F00011C0081719074CF58CE593E00E94630C86
:1035000081E090E013C0281739079CF388EC93E022
:103510000E94630C88E090E009C028173907ACF4DA
:1035200086EC93E00E94630C87E090E09093AA04FD
:103530008093A9040AC01092AA041092A9048CE5F1
:1035400093E01F910F910C94630C1F910F910895BC
:103550001092AA041092A90408951F920F920FB618
:103560000F9211248F939F93AF93BF938091AB04DD
:103570009091AC04A091AD04B091AE040196A11D50
:10358000B11D8093AB049093AC04A093AD04B093B1
:10359000AE04BF91AF919F918F910F900FBE0F908E
:1035A0001F90189583E294EF909389008093880090
:1035B000109280008CE080938100789482E0809368
:1035C0006F0008952FB7F8946091AB047091AC042C
:1035D0008091AD049091AE042FBF08958FB7F894F9
:1035E0001092AB041092AC041092AD041092AE0491
:1035F0008FBF08950E94A723789408950C946B259B
:10360000CF93DF93EC018991882319F00E946B25F9
:10361000FACFDF91CF910895CF93C82F90E024E0A7
:10362000959587952A95E1F78A3010F4805D01C061
:10363000895C0E946B258C2F8F708A3010F0895C1A
:1036400001C0805DCF910C946B25CF93C82F892F3B
:103650000E940C1B8C2FCF910C940C1B2F923F922D
:103660004F925F926F927F928F929F92AF92BF9292
:10367000CF92DF92EF92FF920F931F93CF93DF933E
:10368000CDB7DEB763970FB6F894DEBF0FBECDBFE0
:103690006B017C0197FF0DC0F094E094D094C0942E
:1036A000C11CD11CE11CF11C81E090E09B8B8A8B3A
:1036B00002C01B8A1A8AFE0131965F018E01055FE6
:1036C0001F4FF98BE88B66246394712C812C912C0D
:1036D000AAE0B0E09301A4010E945A261B012C012C
:1036E000C701B6019101A2010E941F269301A40106
:1036F0000E941F26E889F9892193F98BE88B822F94
:10370000220F990BAA0BBB0BC81AD90AEA0AFB0AAB
:10371000310142010E171F07D9F68A899B89892B2F
:1037200019F08DE20E946B2520E030E0F8018291D3
:103730008F01811106C02115310519F4EA15FB0529
:1037400029F4805D0E946B2521E030E00A151B05FD
:1037500069F763960FB6F894DEBF0FBECDBFDF9159
:10376000CF911F910F91FF90EF90DF90CF90BF907E
:10377000AF909F908F907F906F905F904F903F9011
:103780002F9008950C9441250C946825FF920F9377
:103790001F93CF93DF93EC01062FF72E18820E9420
:1037A000412510E08823D9F00E9415258823B9F01F
:1037B0000E941C25803210F089931F5FE02FFF2D9F
:1037C000482F50E02191222339F0022E000C330BB8
:1037D00042175307B9F702C08D3051F71882812F75
:1037E000DF91CF911F910F91FF9008950F931F9339
:1037F000CF93DF938C01EC01699170E080E090E061
:103800000E942E1B0C5F1F4F8EE20E946B25699158
:1038100070E080E090E00E942E1BC017D107A1F756
:1038200085E793E0DF91CF911F910F910C94001BDE
:10383000DC01FB019D91992341F08191891784F06E
:103840009817C4F78FEF9FEF089581E090E02081F3
:10385000211102C080E090E0919581959109089531
:1038600081E090E00895DC0190E020E06150710972
:10387000422F50E0FD01E40FF51F4617570720F4D3
:103880008081980F2F5FF4CF9195908308956115F3
:1038900071058105910541F060932C0170932D0114
:1038A00080932E0190932F0121153105410551057B
:1038B00041F0209328013093290140932A0150932D
:1038C0002B0108954F925F926F927F928F929F92F9
:1038D000AF92BF92CF92DF92EF92FF92CF93DF939E
:1038E00000D000D0CDB7DEB72B013C0129833A834D
:1038F0004B835C83C0902801D0902901E0902A017D
:10390000F0902B01A701960144275527A9E6B0E9BD
:103910000E945A266701EE24FF244B015C018C0CA7
:103920009D1CAE1CBF1C8092280190922901A09280
:103930002A01B0922B01C0902C01D0902D01E09073
:103940002E01F0902F01A701960144275527A0E5ED
:10395000B6E40E945A266701EE24FF24C60ED71E45
:10396000E81EF91EC0922C01D0922D01E0922E018A
:10397000F0922F01D40199278827BC01CD016C0D4D
:103980007D1D8E1D9F1D29813A814B815C812419EB
:103990003509460957090E94FD25CB01840D951D67
:1039A0000F900F900F900F90DF91CF91FF90EF90BD
:1039B000DF90CF90BF90AF909F908F907F906F904F
:1039C0005F904F900895CF93DB01FC0120812D3251
:1039D00021F401966FEF7FEF02C061E070E0119675
:1039E0001C921E92FC01CAE020818D919C9111973E
:1039F0002223C1F0C89FA001C99F500D1124119628
:103A00005C934E93219180ED820F8A30B8F4022EA0
:103A1000000C330B20533109240F351F11963C93B2
:103A20002E93E2CF869F9001879F300D969F300D99
:103A300011242D933C9381E090E002C080E090E05F
:103A4000CF91089580911205833561F4809113051B
:103A5000853441F481E090E020911405223521F075
:103A600080E002C080E090E0E2E1F5E020E031910A
:103A7000230F35E0EA34F307D1F7222311F080E079
:103A800090E00895CF93DF93CDB7DEB7E7970FB6F9
:103A9000F894DEBF0FBECDBF87E3EDE0F3E0DE01BB
:103AA000119601900D928A95E1F767E370E0CE01DF
:103AB00001960E94331C47E3BE016F5F7F4F80E099
:103AC00090E00E94090CE7960FB6F894DEBF0FBE97
:103AD000CDBFDF91CF9108950E94520C892BE1F761
:103AE00047E362E175E080E090E00E943D0C0E94B7
:103AF000221D892B49F40E94421D47E362E175E0D3
:103B000080E090E00C943D0C0895AF92BF92DF925C
:103B1000EF92FF920F931F93CF93DF93EC01D62E7A
:103B2000E72E8A018091AF048333F9F4A62EB72ED5
:103B30007E01E40EF51ECE15DF0509F45EC062E0DD
:103B400080E50E94031980EF0E9411198D2F0E94B9
:103B500011198C2F0E9411192196F50181915F0195
:103B60000E9411190E941819E6CF62E080E50E94B8
:103B70000319C115F4E0DF0718F4FC2EC4E00DC0F2
:103B8000C11528E0D20758F4FC2ED45033E0D69566
:103B9000C7953A95E1F7C07ECC6080E018C0CE01B1
:103BA0009770892FFC2EC115E0E6DE0740F426E071
:103BB000D695C7952A95E1F7C07EC46108C0D05656
:103BC00096E0D695C7959A95E1F7C07ECC610E94A4
:103BD00011198F2D0E9411198C2F0E941119CD2DB2
:103BE000DE2D7E01E00EF11ECE15DF0521F089915C
:103BF0000E941119F9CF0E941819C801DF91CF91C5
:103C00001F910F91FF90EF90DF90BF90AF900895BC
:103C1000CF93DF931F92CDB7DEB7698341E050E0C9
:103C2000BE016F5F7F4F0E94851D0F90DF91CF9186
:103C300008958F929F92AF92BF92CF92DF92EF92B0
:103C4000FF920F931F93CF93DF93EC018B016A01D7
:103C50007901FA01608181E090E00E94081EF6017E
:103C6000618182E090E00E94081EF601628183E09B
:103C700090E00E94081EF601638184E090E00E94BB
:103C8000081E0E94A9054B015C01F2E08F0E911CF9
:103C9000A11CB11C0E94A905681579058A059B0520
:103CA000C9F7688189E090E00E94081E69818AE076
:103CB00090E00E94081E6A818BE090E00E94081E3E
:103CC0006B818CE090E00E94081E6C818DE090E09A
:103CD0000E94081E6D818EE090E00E94081E0E94E6
:103CE000A9054B015C0122E0820E911CA11CB11CB4
:103CF0000E94A905681579058A059B05C9F7F70192
:103D0000608185E090E00E94081EF701618186E0F5
:103D100090E00E94081EF701628187E090E00E9417
:103D2000081EF701638188E090E00E94081E0E944F
:103D3000A9056B017C01F2E0CF0ED11CE11CF11C46
:103D40000E94A9056C157D058E059F05C9F7F80130
:103D500060818FE090E00E94081EF801618180E19F
:103D600090E00E94081EF801628181E190E00E94CB
:103D7000081EF801638182E190E00E94081E0E9403
:103D8000A9056B017C01F2E0CF0ED11CE11CF11CF6
:103D90000E94A9056C157D058E059F05C9F765E58F
:103DA0008AE190E00E94081E65E58BE190E00E94A8
:103DB000081E80E0DF91CF911F910F91FF90EF904F
:103DC000DF90CF90BF90AF909F908F900895AF926B
:103DD000BF92DF92EF92FF920F931F93CF93DF93E7
:103DE000EC01D62EE72E8A018091AF04833301F5D2
:103DF000A62EB72E7E01E40EF51ECE15DF0509F4C2
:103E000060C062E080E50E9403198FE00E941119F2
:103E10008D2F0E9411198C2F0E941119219680E07C
:103E20000E941119F50181935F010E941819E5CFD5
:103E300062E080E50E940319C115F4E0DF0718F481
:103E4000FC2EC0E00DC0C11528E0D20758F4FC2EAE
:103E5000D45033E0D695C7953A95E1F7C07EC86057
:103E600080E018C0CE019770892FFC2EC115E0E6C6
:103E7000DE0740F426E0D695C7952A95E1F7C07E87
:103E8000C06108C0D05696E0D695C7959A95E1F7DF
:103E9000C07EC8610E9411198F2D0E9411198C2FAC
:103EA0000E941119CD2DDE2D7E01E00EF11ECE15E2
:103EB000DF0529F080E00E9411198993F8CF0E9454
:103EC0001819C801DF91CF911F910F91FF90EF90CA
:103ED000DF90BF90AF900895CF93DF931F92CDB73F
:103EE000DEB741E050E0BE016F5F7F4F0E94E71EEA
:103EF00089810F90DF91CF91089590E00496982FDB
:103F00008827860F971F0C946C1F9B0190E00496E6
:103F1000982F8827642F820F931F0E94081E0895F0
:103F2000FB01BA0190E00496982F8827A9018E0F13
:103F30009F1F0C94E71EFB01BA0190E00496982F96
:103F40008827A9018E0F9F1F0C94851DAF92BF92E9
:103F5000CF92DF92EF92FF920F931F93CF93DF9355
:103F600000D0CDB7DEB77A836983BA01A901A981F0
:103F7000BA81B770E82FF0E0EE0FFF1FEC5BFC4F4B
:103F8000E080F180CD018E0D9F1D9D01240F351F16
:103F90002130384080F06A015B0100E018E00A1B24
:103FA0001B0BA8010E94E71EA601401B510BB50187
:103FB000600F711FC7010F900F90DF91CF911F917C
:103FC0000F91FF90EF90DF90CF90BF90AF900C9447
:103FD000E71E682F80E090E00C94081E80E090E0DF
:103FE0000C946C1FCF92DF92EF92FF9283E3809349
:103FF000AF0460E880E090E00E94081E0E94A905DE
:104000006B017C0122E0C20ED11CE11CF11C0E945C
:10401000A9056C157D058E059F05C9F780E10E94F5
:10402000E91F0E94EE1F803121F01092AF0480E062
:104030000FC082E10E94E91F0E94EE1F8231A9F7A2
:1040400080E00E94E91F0E94EE1F8111EECF81E007
:10405000FF90EF90DF90CF900895CF92DF92EF9294
:10406000FF9287E38093AF0460E880E090E00E94D5
:10407000081E0E94A9056B017C0122E0C20ED11C22
:10408000E11CF11C0E94A9056C157D058E059F059C
:10409000C9F788E00E94E91F0E94EE1F883021F0D6
:1040A0001092AF0480E00FC080E10E94E91F0E94DF
:1040B000EE1F8031A9F780E00E94E91F0E94EE1FE9
:1040C0008111EECF81E0FF90EF90DF90CF900895C7
:1040D0000E94F21F811102C00C942D20089544E02B
:1040E00050E0BC0181E090E00C94851D44E050E07C
:1040F000BC0181E090E00C94E71E44E050E0BC017C
:1041000085E090E00C94851D44E050E0BC0185E022
:1041100090E00C94E71E46E050E0BC0189E090E09E
:104120000C94851D46E050E0BC0189E090E00C94C1
:10413000E71E44E050E0BC018FE090E00C94851D48
:1041400044E050E0BC018FE090E00C94E71E682F43
:1041500085E190E00C94081E85E190E00C946C1FC2
:10416000CF93C82F692F87E190E00E94081E6C2F23
:1041700088E190E0CF910C94081ECF93DF9387E104
:1041800090E00E946C1FC82FD0E0DC2FCC2788E184
:1041900090E00E946C1F9E01280F311DC901DF9124
:1041A000CF91089544E050E0BC018AE290E00C9485
:1041B000851D44E050E0BC018AE290E00C94E71ECB
:1041C000CF93C82F692F8EE290E00E94081E6C2FBB
:1041D0008FE290E0CF910C94081ECF93DF938EE294
:1041E00090E00E946C1FC82FD0E0DC2FCC278FE21C
:1041F00090E00E946C1F9E01280F311DC901DF91C4
:10420000CF910895462F60E070E00C94851F60E028
:1042100070E00C947D1F462F61E070E00C94851FC8
:1042200061E070E00C947D1FCF93C82F0E940B219A
:104230008C2F0E9410218111FBCFCF910895462F22
:1042400062E070E00C94851F62E070E00C947D1FCA
:10425000462F63E070E00C94851F63E070E00C94DF
:104260007D1FCF93DF93C82FD62F472F64E070E0D8
:104270000E94851F4D2F65E070E08C2FDF91CF915C
:104280000C94851F1F93CF93DF93182F64E070E089
:104290000E947D1FC82FD0E065E070E0812F0E9452
:1042A0007D1FDC2FCC279E01282BC901DF91CF91E8
:1042B0001F910895AB0126E030E066E070E00C94B9
:1042C0009B1FAB0126E030E066E070E00C94901F8D
:1042D000AB0124E030E06CE070E00C949B1FAB017C
:1042E00024E030E06CE070E00C94901FCF93DF93FB
:1042F000C82FD62F472F60E170E00E94851F4D2FF9
:1043000061E170E08C2FDF91CF910C94851F1F939A
:10431000CF93DF93182F60E170E00E947D1FC82FBC
:10432000D0E061E170E0812F0E947D1FDC2FCC275F
:104330009E01282BC901DF91CF911F910895CF9342
:10434000DF93C82FD62F472F62E170E00E94851FB0
:104350004D2F63E170E08C2FDF91CF910C94851F7E
:104360001F93CF93DF93182F62E170E00E947D1FAF
:10437000C82FD0E063E170E0812F0E947D1FDC2F09
:10438000CC279E01282BC901DF91CF911F91089561
:10439000CF93DF93C82FD62F472F60E270E00E94A3
:1043A000851F4D2F61E270E08C2FDF91CF910C942F
:1043B000851F1F93CF93DF93182F60E270E00E9458
:1043C0007D1FC82FD0E061E270E0812F0E947D1F29
:1043D000DC2FCC279E01282BC901DF91CF911F91A3
:1043E0000895FF920F931F93CF93DF93F82EC0E0B1
:1043F000D0E08F2D0E94D9218C01892B21F08F2DA7
:104400000E94D921EC01C017D10799F7CE01DF91A5
:10441000CF911F910F91FF900895CF93DF93C82FF5
:10442000D62F472F62E270E00E94851F4D2F63E276
:1044300070E08C2FDF91CF910C94851F1F93CF9349
:10444000DF93182F62E270E00E947D1FC82FD0E03A
:1044500063E270E0812F0E947D1FDC2FCC279E013C
:10446000282BC901DF91CF911F910895CF93DF933E
:10447000C82FD62F472F64E270E00E94851F4D2F72
:1044800065E270E08C2FDF91CF910C94851F9F9295
:10449000AF92BF92CF92DF92EF92FF920F931F9352
:1044A000CF93DF93982E7B016A0189010E941E221F
:1044B000E80EF91E97013770E92DF0E0EE0FFF1FAF
:1044C000E45BFC4FA080B180C9018A0D9B1DA9014E
:1044D000400F511F4130584080F0C0E0D8E0C21B6F
:1044E000D30BAE01B6010E94851DA8014C1B5D0BCC
:1044F000B6016C0F7D1FC50102C0A801B6010E9464
:10450000851DB701600F711F892DDF91CF911F911C
:104510000F91FF90EF90DF90CF90BF90AF909F9062
:104520000C9436229A01AB0160E070E00C944722B3
:104530001F93CF93DF93182F64E270E00E947D1FDA
:10454000C82FD0E065E270E0812F0E947D1FDC2F34
:10455000CC279E01282BC901DF91CF911F9108958F
:10456000CF93DF93C82FD62F472F66E270E00E94CB
:10457000851F4D2F67E270E08C2FDF91CF910C9457
:10458000851F1F93CF93DF93182F66E270E00E9480
:104590007D1FC82FD0E067E270E0812F0E947D1F51
:1045A000DC2FCC279E01282BC901DF91CF911F91D1
:1045B0000895FF920F931F93CF93DF93F82EC0E0DF
:1045C000D0E08F2D0E94C1228C01892B21F08F2DEC
:1045D0000E94C122EC01C017D10799F7CE01DF91EB
:1045E000CF911F910F91FF900895CF93DF93C82F24
:1045F000D62F472F68E270E00E94851F4D2F69E299
:1046000070E08C2FDF91CF910C94851F1F93CF9377
:10461000DF93182F68E270E00E947D1FC82FD0E062
:1046200069E270E0812F0E947D1FDC2FCC279E0164
:10463000282BC901DF91CF911F910895CF92DF926E
:10464000EF92FF920F931F93CF93DF93182F6B017D
:104650007A01E9010E9406238C0F9D1FEC01D7709F
:104660009701A601BE01812F0E94A61F011112C051
:10467000BE016E0D7F1D812F0E94F52260E4812F07
:10468000DF91CF911F910F91FF90EF90DF90CF902E
:104690000C941421DF91CF911F910F91FF90EF9017
:1046A000DF90CF9008950F93022F20E030E00E941A
:1046B0001E230F910895CF93DF93C82FD62F472F36
:1046C0006AE270E00E94851F4D2F6BE270E08C2F34
:1046D000DF91CF910C94851F1F93CF93DF93182FF9
:1046E0006AE270E00E947D1FC82FD0E06BE270E0AC
:1046F000812F0E947D1FDC2FCC279E01282BC90112
:10470000DF91CF911F9108951F920F920FB60F92D4
:1047100011240E945F0C82E00E94270E0E94F50D7A
:104720000E94DF04FBCF9FB7F894A895E0E6F0E085
:104730008081886180838FE480839FBF0895A895DE
:104740000895809160008B7080936000FFCF10927D
:10475000C00087E690E09093C5008093C400E1EC30
:10476000F0E088E1808386E08093C2008081806AE7
:10477000808308951F920F920FB60F9211242F93EA
:104780003F938F939F93EF93FF938091B604882379
:1047900009F4F0C08091C6009091B504992309F402
:1047A000E3C090EE980F9F3518F08D3009F059C096
:1047B0002091B2049091B30430E0291B31092150BB
:1047C00031092F733327232B61F0E091B304F0E01C
:1047D000E75BFA4F80839091B3049F5F9F73909340
:1047E000B3042091B0049091B10430E0291B310949
:1047F000215031092F733327232B89F0E091B10425
:10480000F0E0E757FA4F80839091B1049F5F9F7368
:104810009093B1049091C10090629093C1008D304B
:1048200009F0C5C08091B0042091B10490E0821BD2
:10483000910901978F739927892B69F0E091B10451
:10484000F0E0E757FA4F8AE080838091B1048F5FF0
:104850008F738093B1048091B4048F5F8093B4040C
:10486000A6C0883011F08F37C1F58091B304209134
:10487000B20490E0821B91098F739927892B09F468
:1048800096C0E091B304F0E0E75BFA4F808180913D
:10489000B30481508F738093B3048091B00420914E
:1048A000B10490E0821B910901978F739927892B9E
:1048B00009F47DC0E091B104F0E0E757FA4F8FE7CB
:1048C00080838091B1048F5F8F738093B104809156
:1048D000C10080628093C1006AC0843009F067C063
:1048E0008091B3042091B20490E0821B91098F73F0
:1048F0009927892B31F1E091B304F0E0E75BFA4F9F
:1049000080818D30F1F08091B2042091B30490E069
:10491000821B910901978F739927892B91F0E09160
:10492000B304F0E0E75BFA4F8DE080838091B3043D
:104930008F5F8F738093B3048091B4048F5F8093F3
:10494000B4048091B2042091B30490E0821B9109D9
:1049500001978F739927892B51F1E091B304F0E00F
:10496000E75BFA4F84E019C0833009F581E080935A
:10497000B5041DC08091B2042091B30490E0821B65
:10498000910901978F739927892B79F0E091B304EE
:10499000F0E08091C600E75BFA4F80838091B3041A
:1049A0008F5F8F738093B30402C08091C600FF9124
:1049B000EF919F918F913F912F910F900FBE0F908C
:1049C0001F9018951F920F920FB60F9211242F93DC
:1049D0008F939F93EF93FF938091B1042091B00444
:1049E00090E0821B91098F739927892B79F0E091D0
:1049F000B004F0E0E757FA4F80818093C6008091C1
:104A0000B0048F5F8F738093B00405C08091C100A4
:104A10008F7D8093C100FF91EF919F918F912F9196
:104A20000F900FBE0F901F9018958091B304909136
:104A3000B204891B8F7308958091B3042091B2044E
:104A400090E0821B91098F739927892BC1F0E09127
:104A5000B204F0E0E75BFA4F80819091B2049F5F6F
:104A60009F739093B2049091B604992349F08D30CE
:104A700039F49091B40491509093B404089580E077
:104A8000089581E08093B6048091B3042091B2042C
:104A900090E0821B91098F739927892BB1F0E091E7
:104AA000B204F0E0E75BFA4F8081843071F4109239
:104AB000B504E091B204F0E0E75BFA4F80818091A9
:104AC000B2048F5F8F738093B2048091B504089510
:104AD0008091B40408950FB607FE0EC02091B00473
:104AE0009091B10430E0291B3109215031092F7315
:104AF0003327232B99F30DC02091B0049091B1047A
:104B000030E0291B3109215031092F733327232B22
:104B100061F0E091B104F0E0E757FA4F80838091B3
:104B2000B1048F5F8F738093B1048091C100806264
:104B30008093C10008951F93CF93DF93EC0180E031
:104B400011E0180FFE01E80FF11D8081882321F08C
:104B50000E946B25812FF4CFDF91CF911F91089593
:104B60001F93CF93DF93EC0180E011E0180FFE015B
:104B7000E80FF11D8491882321F00E946B25812F7D
:104B8000F4CFDF91CF911F910895DB018F939F9315
:104B90000E945A26BF91AF91A29F800D911DA39FA5
:104BA000900DB29F900D11240895AA1BBB1B51E1DB
:104BB00007C0AA1FBB1FA617B70710F0A61BB70B8D
:104BC000881F991F5A95A9F780959095BC01CD0132
:104BD000089597FB072E16F4009407D077FD09D0AF
:104BE0000E94D52507FC05D03EF4909581959F4FF6
:104BF0000895709561957F4F0895A1E21A2EAA1B22
:104C0000BB1BFD010DC0AA1FBB1FEE1FFF1FA2177C
:104C1000B307E407F50720F0A21BB30BE40BF50B79
:104C2000661F771F881F991F1A9469F76095709502
:104C3000809590959B01AC01BD01CF010895052E93
:104C400097FB1EF400940E94362657FD07D00E9461
:104C5000FD2507FC03D04EF40C9436265095409564
:104C6000309521953F4F4F4F5F4F08959095809518
:104C7000709561957F4F8F4F9F4F0895EE0FFF1FE7
:104C80000590F491E02D09946927962769277827E4
:104C9000872778270895A29FB001B39FC001A39FE3
:104CA000700D811D1124911DB29F700D811D112465
:104CB000911D08950E944B26A59F900DB49F900DC5
:0E4CC000A49F800D911D11240895F894FFCF3C
:104CCE00030B443100802500002D00040B443000FE
:104CDE00802500002D0002060024F400010C6174F2
:084CEE006D6567613332380087
:104CF6004B0041535500FF03FE030000010000C0B6
:104D0600A801640030302F30302F30303030203062
:104D1600303A30303A303000E5559A15B53B121F1F
:104D26006362726F6273746F0062726F6273746F24
:104D36006E00636F6479006C6F63616C2069703A12
:104D4600200009736F636B65742065737461626C10
:104D560069736865640D0A0009736F636B65742077
:104D66006C697374656E696E670D0A0009736F630B
:104D76006B657420636C6F7365640D0A0009736F4D
:104D8600636B65742073746174757320756E6B6ED6
:104D96006F776E0D0A00485454502F312E31203251
:104DA6003030204F4B00436F6E74656E742D54790E
:104DB60070653A206170706C69636174696F6E2FFB
:104DC600766E642E6170692B6A736F6E00436F6E28
:104DD6006E656374696F6E3A20636C6F73650D0A56
:104DE600000D0A00767064003A7B006D6F64656C96
:104DF600006D616E756661637475726572007365C8
:104E06007269616C5F6E756D626572006D616E755B
:104E1600666163747572655F64617465006D616374
:104E26005F6164647265737300636F756E74727923
:104E36005F636F64650074637269745F68690074A8
:104E46007761726E5F68690074637269745F6C6F14
:104E560000747761726E5F6C6F0074656D70657259
:104E66006174757265007374617465004E4F524DBE
:104E7600414C006C6F67003A5B0074696D65737432
:104E8600616D70006576656E740050555420636FD1
:104E96006D6D616E64202E2E2E0D0A0044454C4524
:104EA600544520636F6D6D616E64202E2E2E0D0AA3
:104EB600004745542000505554200044454C455465
:104EC6004520004552523A2044656661756C74204F
:104ED6006361736520656E74657265640D0A00EF23
:104EE600010101FFFFFFFFC0A801011F1C1F1E1FBC
:104EF6001E1F1F1E1F1E1F01005E0000005345528D
:104F06000053616E647900000000000000446F7574
:104F1600676C617300000000005F554E41535349B2
:104F2600474E45440000000000444F5553414E553E
:104F360053410000006000480070007800400048BF
:104F4600005000580D0A414C41524D3A2000574935
:104F56005A6E65740074696D652073796E63656455
:104F660020005554430D0A0030302F30302F30309A
:104F760030302030303A30303A30300050726F6A7C
:104F8600656374206E6F74207369676E65640D0ABD
:104F96000066697273746E616D65006C6173746E20
:104FA600616D65006173757269746500546573742B
:0A4FB600696E670D0A002D002E0041
:00000001FF
